:100000000C946A000C9492000C9492000C94920050
:100010000C9492000C9492000C9492000C94CC02DC
:100020000C9492000C9429050C9492000C946F048B
:100030000C9492000C9492000C9492000C949200F8
:100040000C9425040C9492000C9441020C941B0215
:100050000C9492000C9492000C9492000C949200D8
:100060000C94D4050C9492006364696E6F70737580
:1000700078585B00020000000023002600290000E1
:10008000000000240027002A0000000008000201F0
:10009000000003040700000000000000000102044B
:1000A00008102040800102040810200102040810FA
:1000B0002000000000250028002B00040404040494
:1000C0000404040202020202020303030303030006
:1000D0002410141011241FBECFEFD8E0DEBFCDBF17
:1000E00011E0A0E0B1E0E8E7F0E302C005900D9276
:1000F000AC37B107D9F724E0ACE7B1E001C01D92FD
:10010000A931B207E1F710E0C9E6D0E004C02197B9
:10011000FE010E948B13C836D107C9F70E9421083F
:100120000C942F180C940000CF92DF92EF92FF9264
:100130000F931F93CF93DF936C017A018B01C0E083
:10014000D0E0CE15DF0589F0D8016D918D01D60183
:10015000ED91FC910190F081E02DC6010995892B6C
:1001600011F47E0102C02196ECCFC701DF91CF913F
:100170001F910F91FF90EF90DF90CF900895FC01B9
:10018000918D828D981761F0828DDF01A80FB11DCE
:100190005D968C91928D9F5F9F73928F90E00895F2
:1001A0008FEF9FEF0895FC01918D828D981731F0AC
:1001B000828DE80FF11D858D90E008958FEF9FEF00
:1001C0000895FC01918D228D892F90E0805C9F4FD6
:1001D000821B91098F739927089581E892E00E940C
:1001E000E10021E0892B09F420E0822F0895FC0131
:1001F000848DDF01A80FB11DA35ABF4F2C91848DB0
:1002000090E001968F739927848FA689B7892C93E4
:10021000A089B1898C9180648C93938D848D98137F
:1002200006C00288F389E02D80818F7D8083089548
:10023000EF92FF920F931F93CF93DF93EC0181E036
:10024000888F9B8D8C8D981305C0E889F9898081F2
:1002500085FD24C0F62E0B8D10E00F5F1F4F0F732E
:100260001127E02E8C8DE8120CC00FB607FCFACFD8
:10027000E889F989808185FFF5CFCE010E94F700DA
:10028000F1CF8B8DFE01E80FF11DE35AFF4FF08295
:100290000B8FEA89FB898081806207C0EE89FF8924
:1002A0006083E889F98980818064808381E090E0BF
:1002B000DF91CF911F910F91FF90EF900895CF9311
:1002C000DF93EC01888D8823C9F0EA89FB8980815E
:1002D00085FD05C0A889B9898C9186FD0FC00FB630
:1002E00007FCF5CF808185FFF2CFA889B9898C9171
:1002F00085FFEDCFCE010E94F700E7CFDF91CF91D0
:10030000089580E090E0892B29F00E94ED00811192
:100310000C9400000895833081F028F4813099F026
:100320008230A1F008958730A9F08830B9F0843088
:10033000D1F4809180008F7D03C0809180008F7701
:1003400080938000089584B58F7702C084B58F7D37
:1003500084BD08958091B0008F7703C08091B00074
:100360008F7D8093B000089585ED8093BC008091CF
:10037000BC0084FDFCCF10925202089540912C02E3
:10038000262F30E0240F311D21323105DCF420917D
:1003900052022430C9F4FC0180E090E0861758F442
:1003A00030912C022191DC01A65FBD4FA30FB11D3E
:1003B0002C930196F3CF80912C02680F60932C024E
:1003C00080E0089581E0089582E0089508958FEF18
:1003D0009FEF08958FEF9FEF08958091090290E0BD
:1003E0009195819591090895CF93DF9300D0CDB772
:1003F000DEB7CB01642F49835A830E94BE01498135
:10040000842F5A81952F0F900F90DF91CF910895EF
:10041000CF93DF931F92CDB7DEB7698361E0CE0142
:1004200001960E94BE0181E090E00F90DF91CF9194
:1004300008950E94BE141F920F920FB60F921124BE
:100440002F933F934F935F936F937F938F939F93DC
:10045000AF93BF93EF93FF9381E892E00E94F70080
:10046000FF91EF91BF91AF919F918F917F916F918C
:100470005F914F913F912F910F900FBE0F901F9062
:1004800018951F920F920FB60F9211242F938F93EE
:100490009F93EF93FF93E0919102F09192028081FC
:1004A000E0919702F091980282FD12C090818091B4
:1004B0009A028F5F8F7320919B02821751F0E09117
:1004C0009A02F0E0EF57FD4F958F80939A0201C09A
:1004D0008081FF91EF919F918F912F910F900FBE8F
:1004E0000F901F901895CF93DF93282F30E0F901DC
:1004F000E757FF4F8491F901E356FF4FD491F9017B
:10050000E554FF4FC491CC2391F081110E948B01DF
:10051000EC2FF0E0EE0FFF1FEB58FF4FA591B491C9
:10052000EC91ED2381E090E021F480E002C080E0D6
:1005300090E0DF91CF9108951F93CF93DF93282F01
:1005400030E0F901E757FF4F8491F901E356FF4F7F
:10055000D491F901E554FF4FC491CC23C9F0162F73
:1005600081110E948B01EC2FF0E0EE0FFF1FEF5482
:10057000FF4FA591B4918FB7F894111105C09C91CC
:10058000ED2FE095E92302C0EC91ED2BEC938FBFAA
:10059000DF91CF911F9108951F920F920FB60F9286
:1005A00011242F933F934F935F936F937F938F9378
:1005B0009F93AF93BF93EF93FF9380917F019091AF
:1005C0008001A0918101B0918201892B8A2B8B2B14
:1005D00059F180917C01E0917D01F0917E01908143
:1005E0008927808380917F0190918001A091810172
:1005F000B0918201181619061A061B060CF03DC0B0
:1006000080917F0190918001A0918101B091820140
:100610000197A109B10980937F0190938001A09374
:100620008101B093820129C080910401E4E7F0E0E8
:10063000E4919FEF90930401E130B9F098F0E2303B
:10064000C9F4909170009D7F9093700091E0909319
:10065000B0009091B100987F94609093B100109297
:10066000B30008C010926E0005C090916F009D7F8E
:1006700090936F0060E00E949C02FF91EF91BF9108
:10068000AF919F918F917F916F915F914F913F912A
:100690002F910F900FBE0F901F901895CF93DF935F
:1006A00090E0FC01E356FF4F2491FC01E554FF4F1D
:1006B0008491882361F190E0880F991FFC01E15833
:1006C000FF4FC591D491FC01EF54FF4FA591B49118
:1006D000611109C09FB7F89488812095822388838F
:1006E000EC912E230BC0623061F49FB7F8943881EF
:1006F000822F809583238883EC912E2B2C939FBF90
:1007000006C08FB7F894E8812E2B28838FBFDF9126
:10071000CF9108951F93CF93DF93182FEB0161E0E2
:100720000E944E03209711F460E004C0CF3FD10532
:1007300039F461E0812FDF91CF911F910C949C02DD
:10074000E12FF0E0E757FF4FE491E330F9F048F490
:10075000E130B9F0E230A1F584B5806284BDC8BD56
:1007600034C0E730E9F0E83019F1E43049F5809120
:100770008000806280938000D0938B00C0938A00B9
:1007800024C084B5806884BDC7BD1FC0809180002F
:10079000806880938000D0938900C093880015C042
:1007A0008091B00080688093B000C093B3000DC00A
:1007B0008091B00080628093B000C093B40005C007
:1007C000C038D1050CF0B5CFAFCFDF91CF911F91DD
:1007D00008958E3008F08E508770806480937C007E
:1007E00080917A00806480937A0080917A0086FDFF
:1007F000FCCF809178002091790090E0922B0895B1
:100800003FB7F89480917D0290917E02A0917F0283
:10081000B091800226B5A89B05C02F3F19F0019624
:10082000A11DB11D3FBFBA2FA92F982F8827820F76
:10083000911DA11DB11DBC01CD0142E0660F771FC6
:10084000881F991F4A95D1F708951F920F920FB6EE
:100850000F9211242F933F938F939F93AF93BF9346
:100860008091790290917A02A0917B02B0917C02F2
:100870003091780223E0230F2D3720F40196A11D3B
:10088000B11D05C026E8230F0296A11DB11D2093BE
:1008900078028093790290937A02A0937B02B093BE
:1008A0007C0280917D0290917E02A0917F02B091A6
:1008B00080020196A11DB11D80937D0290937E025E
:1008C000A0937F02B0938002BF91AF919F918F91CF
:1008D0003F912F910F900FBE0F901F9018951F9270
:1008E0000F920FB60F9211242F933F934F935F9364
:1008F0006F937F938F939F93AF93BF93EF93FF93E8
:1009000080911F030E9473022091230330912403DE
:100910002F5F3F4F309324032093230390912203B2
:10092000953618F096E090931E0390911E03943034
:10093000C9F128F4923069F09330D1F05EC095305F
:1009400009F451C0963009F058C091E09093EF033C
:1009500051C0811152C020912303309124032436C9
:10096000310508F442C01092EF03109222031CC01C
:10097000813009F042C0E091220391E09E0F9093F4
:100980002203F0E02091230330912403EE0FFF1F98
:10099000E25EFC4F308727831092240310922303DA
:1009A00094E029C0811117C0E091220391E09E0FCD
:1009B00090932203F0E02091230330912403EE0F63
:1009C000FF1FE25EFC4F30872783109224031092B2
:1009D000230393E010C02091230330912403253694
:1009E000310558F007C0811108C0109224031092FD
:1009F000230303C095E090931E0390912103992354
:100A0000B9F081110AC080912003882321F08091E0
:100A1000200361E009C02D9A0BC080912003882338
:100A200031F08091200360E00E949C0201C02D986B
:100A3000FF91EF91BF91AF919F918F917F916F91B6
:100A40005F914F913F912F910F900FBE0F901F908C
:100A500018951F920F920FB60F9211242F933F9368
:100A60004F935F936F937F938F939F93AF93BF93B6
:100A7000EF93FF93809183018F5F80938301209197
:100A800083018091840190E0FC01EE0FFF1F8E0F27
:100A90009F1FFC01EB57FE4F818128130FC08091EF
:100AA000840190E0FC01EE0FFF1F8E0F9F1FFC01E1
:100AB000EB57FE4F82818093B20065C02091830185
:100AC0008091840190E0FC01EE0FFF1F8E0F9F1FAD
:100AD000FC01EB57FE4F8181821708F054C08091D2
:100AE000840190E0FC01EE0FFF1F8E0F9F1FFC01A1
:100AF000EB57FE4F808185FF10C08091840190E00C
:100B0000FC01EE0FFF1F8E0F9F1FFC01EB57FE4FE6
:100B1000808160E08F710E949C02809184018F5FD0
:100B200080938401109283011092B200809184011D
:100B3000882319F1809184018C30F8F4809184012C
:100B400090E0FC01EE0FFF1F8E0F9F1FFC01EB5783
:100B5000FE4F808185FF17C08091840190E0FC01E9
:100B6000EE0FFF1F8E0F9F1FFC01EB57FE4F808182
:100B700061E08F710E949C0206C0809184018C30DC
:100B800010F010928401FF91EF91BF91AF919F916E
:100B90008F917F916F915F914F913F912F910F9026
:100BA0000FBE0F901F9018951F920F920FB60F92C5
:100BB00011242F933F934F935F936F937F938F9362
:100BC0009F93AF93BF93EF93FF938091B900887F7A
:100BD000803609F49CC068F5883209F45BC090F453
:100BE000803109F454C038F4882309F4F6C0883001
:100BF00009F44DC0F6C0883109F44CC0803209F4C4
:100C00005DC0EFC0803409F468C048F4803309F453
:100C100055C0883309F0E5C080935102D8C08035B3
:100C200009F44FC0883509F45DC0883409F0D9C093
:100C3000D6C0883909F4C7C0A8F4883709F467C05A
:100C400038F4883609F463C0803709F460C0C9C03D
:100C5000883809F4B8C0803909F45FC0803809F0D9
:100C6000C0C05BC0803B09F486C038F4803A09F408
:100C700066C0883A09F47FC0B4C0803C09F4A7C0BC
:100C8000883C09F4A4C0883B09F48AC0AAC08091BA
:100C9000770210C09091760280917502981770F5D6
:100CA000E091760281E08E0F80937602F0E0EB5ABD
:100CB000FD4F80818093BB0085EC86C080935102FC
:100CC0008EC0E091760281E08E0F80937602809153
:100CD000BB00F0E0EB5AFD4F80839091760280914B
:100CE00075026EC0E091760281E08E0F80937602ED
:100CF0008091BB00F0E0EB5AFD4F8083809154025D
:100D000081116DC081E08093530284EA61C083E069
:100D10008093520210925002CFCF809150028032C5
:100D200008F051C0E091500281E08E0F8093500294
:100D30008091BB00F0E0E05DFD4F8083BDCF85EC8E
:100D40008093BC001092520280915002803230F4A5
:100D5000E0915002F0E0E05DFD4F108260915002A2
:100D600070E0E0912E02F0912F0280E392E009956D
:100D70001092500236C084E08093520210922D02ED
:100D800010922C02E0912A02F0912B020995809199
:100D90002C02811105C081E080932C0210920A027E
:100DA000E0912D0281E08E0F80932D02F0E0E65F4E
:100DB000FD4F80818093BB0090912D0280912C0289
:100DC000981708F479CF85E88093BC000AC085ECB9
:100DD0008093BC001092520204C0109251020E94F3
:100DE000B401FF91EF91BF91AF919F918F917F914E
:100DF0006F915F914F913F912F910F900FBE0F9088
:100E00001F9018958BE691E00E941C078FE691E0F9
:100E10000C941C07009769F0FC0101900020E9F791
:100E20003197AF01481B590BBC0181E892E00C944B
:100E3000940080E090E008950C940A07DC01909102
:100E4000F903992361F0699FB0011124672F499F2D
:100E5000A0011124452F299F90011124232F3091A7
:100E6000FF038091FC03E091FA03F091FB03381338
:100E700008C0CD01880F991F8A0F9B1F8E0F9F1FDF
:100E80000BC0CD01880F991F880F991F8E0F9F1FD0
:100E9000FC01E30FF11D10823091FC03FC01E30F14
:100EA000F11D60833091FD03FC01E30FF11D4083D0
:100EB0003091FE03FC01E30FF11D20830895E091C2
:100EC0008102F09182020190F081E02D682F81E88B
:100ED00092E009948F929F92AF92BF920F931F93CB
:100EE000CF93DF93CDB7DEB7A1970FB6F894DEBFEF
:100EF0000FBECDBF19A2423008F44AE08E010F5D4B
:100F00001F4F842E912CA12CB12CA50194010E947D
:100F10007911E62FB901CA0101501109EA3014F420
:100F2000E05D01C0E95CD801EC93232B242B252B39
:100F300061F7C8010E940A07A1960FB6F894DEBFB8
:100F40000FBECDBFDF91CF911F910F91BF90AF909A
:100F50009F908F900895CF92DF92EF92FF92CF9360
:100F6000DF936C01990FEE08FF08F7FE12C08DE2C7
:100F70000E945F07EC0166277727CB016C197D097A
:100F80008E099F094AE00E946A077C01EC0EFD1E53
:100F900006C04AE0C701B6010E946A077C0189E7E2
:100FA00091E00E940A078E0D9F1DDF91CF91FF9067
:100FB000EF90DF90CF900895CF92DF92EF92FF9263
:100FC0000F931F93E82FF92F05C001501109210934
:100FD000310961F1908196239417B9F305C001504E
:100FE00011092109310911F1908196239413F7CF4A
:100FF000C12CD12CE12CF12C0AC08FEFC81AD80AD1
:10100000E80AF80A0C151D052E053F0579F08081C8
:101010008623841791F36C2D7D2D8E2D9F2D1F918E
:101020000F91FF90EF90DF90CF90089560E070E017
:1010300080E090E01F910F91FF90EF90DF90CF90B4
:101040000895CF93DF93CDB7DEB769970FB6F894C5
:10105000DEBF0FBECDBF789484B5826084BD84B5F9
:10106000816084BD85B5826085BD85B5816085BDA3
:1010700080916E00816080936E001092810080915B
:1010800081008260809381008091810081608093E3
:101090008100809180008160809380008091B10008
:1010A00084608093B1008091B00081608093B00033
:1010B00080917A00846080937A0080917A008260C7
:1010C00080937A0080917A00816080937A00809189
:1010D0007A00806880937A001092C100E0919102BA
:1010E000F091920282E08083E0918D02F0918E0275
:1010F0001082E0918F02F091900280E18083109243
:101100009902E0919502F091960286E08083E09149
:101110009302F0919402808180618083E091930238
:10112000F0919402808188608083E0919302F09135
:101130009402808180688083E0919302F091940210
:1011400080818F7D80830E94020781E892E00E9467
:10115000E100892B09F471C681E892E00E94BF008A
:10116000F82EA0910802E1E0EA0FE09308020A2EAF
:10117000000CBB0BA853BE4F8C932AE0821355C6BC
:101180000E2E000CFF0BE853FE4F10828091C80119
:101190008D3409F039C689EC91E00E9402118C016E
:1011A000AE01455F5F4F6DE671E089EC91E00E9412
:1011B0002011013331E0130709F426C2DCF40E32AA
:1011C00051E01507C1F16CF40115110589F10D32DB
:1011D000114009F019C68BE291E00E941C078FE0D4
:1011E0002FC00F32A1E01A0781F10033114009F43A
:1011F0001DC10AC60433E1E01E0709F41DC454F4FE
:10120000023321E0120709F40BC20333114009F441
:1012100022C2FAC5063341E0140709F49CC50CF458
:1012200003C5073E134009F0EFC50C940000ECC560
:101230000E940207E9C581E391E00E941C0780E15A
:101240000E94E9030E94AB07DFC587E391E00E949B
:101250001C0780910704811127C0F0921F03809121
:101260001F03F8941092800089E08093810080E24F
:1012700093E09093890080938800109285001092EB
:10128000840082E080936F00789480931E03109214
:10129000220380911F0360E00E944E0381E080934F
:1012A000F0038093070411C00E9400046B017C01CD
:1012B0000E940004DC01CB018C199D09AE09BF0915
:1012C000883E9340A105B10598F385E293E09093A1
:1012D000B4018093B30180912203282E312C3092E7
:1012E000B6012092B5018091EF0390E09093B80190
:1012F0008093B70180911E03853009F007C6809165
:10130000270390912803885891098D35910588F419
:1013100080912203843041F48091290390912A0323
:101320008097479708F4A5C580912203843408F07C
:1013300087C5F6E02F1631040CF4E3C50BE213E089
:1013400023E030E03D8B2C8BE5ECCE2EEDE9DE2E5C
:10135000ECE1EE2EE1E8FE2E2C893D8922153305C5
:101360000CF053C0D8016D917C91F8013497A080A6
:10137000B18080E090E00E944B122B013C01B5014E
:1013800080E090E00E944B124B015C012DEC3CECA4
:101390004CE45FE30E9402139B01AC01C301B20164
:1013A0000E94171287FD17C02DEC3CEC4CE45FE364
:1013B000C301B2010E9402139B01AC01C501B4013B
:1013C0000E941712E82F880FFF0BEE27FF0FEE1F6A
:1013D000FF27319602C0E0E0F0E0A701960163E943
:1013E00071E080E091E00E9474136F01FF0FEE083E
:1013F000FF08C626D726E826F926EC89FD8931960E
:10140000FD8BEC8B0E5F1F4FA7CFC092AD01D0922A
:10141000AE01E092AF01F092B00180E290E09093D3
:10142000B2018093B1018FEF9FEF7DC5CE01019690
:101430009F938F9302969F938F9304969F938F937E
:1014400002969F938F938DE391E09F938F938C856A
:101450008F938B858F930E94C314D980EB80FF807C
:1014600089859A850FB6F894DEBF0FBECDBF009771
:10147000A9F400E010E08091F4039091F5030817BF
:10148000190730F42D2D4E2D6F2DC8010E941E0717
:101490000F5F1F4F0031110571F70DC001972091AB
:1014A000F4033091F5038217930728F42D2D4E2D68
:1014B0006F2D0E941E078091FA039091FB03892BE8
:1014C00009F4A2C40E9400040091000410910104D8
:1014D0002091020430910304DC01CB01801B910BAD
:1014E000A20BB30BC297A105B10560F3F8948091EC
:1014F000F6039091F7039E838D83E091FA03F091B8
:10150000FB03DF01119680818B8B9091F203E091B8
:101510000404F091050480910604992309F42EC077
:101520009081982B9A8B908180958923898B8989CA
:101530008E8788E08D873A8949896B895D852E85FC
:101540008D819E81308367FD232F5A952083242F20
:1015500039F0661F00C000004083000000C0F2CFD9
:1015600058E06D9140830000019761F7F093050406
:10157000E09304046B8B5D872E8738C09081982B95
:101580009A8B908180958923898B8989888B88E0C3
:101590008F873A8949896B895F8528898D819E81EA
:1015A000308367FD232F00C000C0208300C000C02F
:1015B00000C000C000C040830000242F5A9541F0B5
:1015C000661F000000C000C000C000C000C0E8CF1F
:1015D00058E06D9100C0408300C0019709F7F09377
:1015E0000504E09304046B8B5F87288B9E838D83B7
:1015F00078940E9400046093000470930104809327
:1016000002049093030400C48AE491E00E941C0742
:1016100060E08BE00E944E038BE00E94730212CECA
:1016200080E591E00E941C0760E08BE00E944E0381
:1016300060E08CE00E944E038BE00E9473028C01FC
:101640008CE00E94730264E0880F991F6A95E1F7AD
:10165000802B912BF7CDCE0101969F938F9302960D
:101660009F938F9383E491E09F938F938C858F93C7
:101670008B858F930E94C31489819A819D8B8C8B5B
:101680002B803C80809104010FB6F894DEBF0FBE22
:10169000CDBF8B3021F4E4E7F0E0149175C08F3FAB
:1016A00009F0B2C38BE080930401E4E7F0E0149109
:1016B0001F3F09F4A9C3113009F1123009F441C0E8
:1016C000111162C014BC15BC84B5826084BD85B59F
:1016D000816085BDE6ECF0E0E491F0E0EE0FFF1FE5
:1016E000EF54FF4F859194919093BE018093BD017B
:1016F000E8EAF0E0E491E093BC0148C01092800079
:101700001092810080918100886080938100809197
:101710008100816080938100E6ECF0E0E491F0E0EC
:10172000EE0FFF1FEF54FF4F859194919093BB01F3
:101730008093BA01E8EAF0E0E491E093B90111E0A6
:1017400025C01092B0001092B1008091B00082606C
:101750008093B0008091B10081608093B100E6EC8D
:10176000F0E0E491F0E0EE0FFF1FEF54FF4F8591A2
:10177000949190937E0180937D01E8EAF0E0E491FA
:10178000E0937C0112E002C017FD3EC32C893D8925
:10179000032E000C440B550B2E8B3F8B488F598F1B
:1017A00061E08BE00E944E034101A12CB12C812FFE
:1017B0008D7F09F0B6C060E072E18AE790E0A50194
:1017C00094010E944F1129013A0169017A0131E027
:1017D000C31AD108E108F1084FEFC416D104E1049F
:1017E000F10409F008F44BC060E472E48FE090E08B
:1017F000A50194010E944F1169017A0181E0C81A84
:10180000D108E108F108123001F59FEFC916D104A3
:10181000E104F10409F008F405C460E970ED83E027
:1018200090E0A50194010E944F1169017A01A1E0A5
:10183000CA1AD108E108F108BFEFCB16D104E104C0
:10184000F10409F0C0F583E065C0EFEFCE16D104D6
:10185000E104F104B1F0A8F068E478EE81E090E0F2
:10186000A50194010E944F1169017A01F1E0CF1A9C
:10187000D108E108F108112309F4B2C3A8C381E03B
:1018800001C082E0112391F045C0D301C2012AE0DA
:10189000B595A795979587952A95D1F76C017D0108
:1018A00041E0C41AD108E108F10885E095B5987FB8
:1018B000892B85BD71C068E478EE81E090E0A501D8
:1018C00094010E944F1169017A0181E0C81AD10880
:1018D000E108F1089FEFC916D104E104F10409F011
:1018E00008F446C364E274EF80E090E0A50194013F
:1018F0000E944F1169017A0181E0C81AD108E108FC
:10190000F1089FEFC916D104E104F10411F008F0C9
:1019100031C385E09091B100987F892B8093B1000D
:101920003BC060E072E18AE790E0A50194010E946B
:101930004F1169017A01F1E0CF1AD108E108F108ED
:10194000C114D10421E0E206F10488F068E478EEE5
:1019500081E090E0A50194010E944F1169017A0194
:1019600081E0C81AD108E108F10893E001C091E0D4
:10197000113091F480918100887F892B80938100C0
:101980002E893F89488D598D232B242B252B61F4DB
:101990002FEF3FEFA9012EC08E899F89A88DB98DA9
:1019A000892B8A2B8B2B71F09101220F331FAC896D
:1019B000BD890E94841328EE33E040E050E00E948D
:1019C000791103C02FEF3FEFA901113099F01230C8
:1019D00019F1111119C2C7BC2093C3013093C4017E
:1019E0004093C5015093C60180916E008260809340
:1019F0006E000AC2D0928900C09288002093BF0175
:101A00003093C0014093C1015093C20180916F0097
:101A1000826080936F00F8C1C092B30020937F0171
:101A20003093800140938101509382018091700036
:101A3000826080937000E8C186E591E00E941C07F7
:101A400061E08CE00E944E0360E08BE00E944E0358
:101A500060E08CE00E949C0283E090E00197F1F747
:101A600061E08CE00E949C0283E290E00197F1F734
:101A700060E08CE00E949C02E8EAF0E06491E6EC11
:101A8000F0E0E491F0E0EE0FFF1FEB58FF4F85917F
:101A9000949100E412E42FE030E0462F0E94DC072E
:101AA000611571058105910539F0DC01CB010196C5
:101AB000A11DB11DBF7003C080E090E0DC01BC013E
:101AC000990F880B990B0E944D1226E933E44BE0E5
:101AD0005DE30E94021320E030E040E05FE30E94FB
:101AE00002136B017C014B015C019B01AC010E9464
:101AF0006F13882319F08CE591E01AC02601370195
:101B0000E89477F82FEF3FEF4FE75FE7C301B201AB
:101B10000E946F1381110FC02FEF3FEF4FE75FE778
:101B2000C301B2010E94171218162CF480E691E04E
:101B30000E940A0774C02FEF3FEF4FE75FE4C70131
:101B4000B6010E94FD1218161CF484E691E0F0CF55
:101B50002FEF3FEF4FE75FECC701B6010E9417126E
:101B600087FDF3CF20E030E0A901C701B6010E9454
:101B7000171287FF09C08DE20E945F0746015701D7
:101B8000B7FAB094B7F8B0942AE037ED43EA5BE3D4
:101B9000C501B4010E94AB114B015C010E941C12F3
:101BA0006B017C010E944B129B01AC01C501B40189
:101BB0000E94AA114B015C014AE0C701B6010E94D4
:101BC0006A078EE20E945F0720E030E040E251E4C5
:101BD000C501B4010E9402136B017C010E941C121A
:101BE0004B01A12CB12C4AE0C501B4010E946A0747
:101BF000C501B4010E944B129B01AC01C701B601A3
:101C00000E94AA1120E030E040E251E40E94021359
:101C10000E941C1280E090E04AE00E946A0789E777
:101C200091E00E940A07F0C0CE0101969F938F9326
:101C300002969F938F9383E491E09F938F938C857B
:101C40008F938B858F930E94C314E980FA800FB61F
:101C5000F894DEBF0FBECDBF8B819C81892B11F024
:101C600019E001C013E08091C701811123C080E019
:101C700090E03BE027E5FC01EB57FE4F34832583E2
:101C8000039681329105B9F78BE18093860110921A
:101C9000840110928301109270001092B00082E0D3
:101CA0008093B1001092B20081E087BB80937000F6
:101CB0008093C7018091F103882399F061E0812F1F
:101CC0000E944E03E091F103F0E0CF01880F991FCD
:101CD000E80FF91FEB57FE4F8081807E182B1062B2
:101CE00010831091F1038FEF810F8B3008F08CC0BF
:101CF00020E437E0D7010E94841324EB30E040E079
:101D000050E00E944F11DA01C901805E9D4FAF4F34
:101D1000BF4F8032E2E09E073CF09C018136994043
:101D20002CF020E639E002C020E232E028503109F0
:101D3000E12FF0E0C901880F892F881F990BAF01AF
:101D4000440F551FE40FF51FEB57FE4F8183220F01
:101D50002095228359C0CE0101969F938F930296BE
:101D60009F938F9383E491E09F938F938C858F93C0
:101D70008B858F930E94C31489811A812B813C81AA
:101D80000FB6F894DEBF0FBECDBF2130310541F450
:101D9000682F712F77FF2DC071956195710929C04A
:101DA0002230310589F4682F712F77FF03C07195B8
:101DB0006195710985E00E948A03612F6095661F15
:101DC0006627661F84E01EC0232BF1F4E82EF12E57
:101DD000F7FE03C0F194E194F108B70185E00E9499
:101DE0008A03612F661F6627661F84E00E949C029B
:101DF000B70186E00E948A03612F6095661F6627FF
:101E0000661F87E00E949C0288E691E00E940A0714
:101E100089E791E00E940A0780E4E8ECF1E0DF0145
:101E20001D928A95E9F71092080280910802803489
:101E30000CF48BC91092080288C90E94810185C9DF
:101E40008091290390912A03825491098E9708F07A
:101E500070CA20E030E080E090E0DC01F901E55D4F
:101E6000FC4F408151814950510949305105C8F01A
:101E700060CA80912B0390912C030997099708F071
:101E800053CA1092B2011092B1012FEF3FEFA90196
:101E90002093AD013093AE014093AF015093B00158
:101EA00040C0F901E35DFC4F408151814751510928
:101EB00042315105C8F4880F991FAA1FBB1F8160CA
:101EC0002C5F3F4F2038310549F620E230E0309357
:101ED000B2012093B1018093AD019093AE01A09324
:101EE000AF01B093B0011DC04081518146505109EE
:101EF0004730510508F01DCA880F991FAA1FBB1F44
:101F0000DFCF82E080931E03109222038FEF9FEFBA
:101F10009093010180930001809100019091010153
:101F200091C983E090E09093AA018093A9018091E8
:101F3000AD019091AE01A091AF01B091B0018F3F82
:101F40003FEF9307A307B30729F090930301809312
:101F5000020104C08091020190910301909301015C
:101F60008093000182E080931E0310922203D4CF5D
:101F700084E0D0CC62E17AE780E090E0A5019401B2
:101F80000E944F1169017A01A1E0CA1AD108E10843
:101F9000F108BFEFCB16D104E104F104B1F0A8F0D1
:101FA000D301C2012AE0B595A795979587952A9503
:101FB000D1F76C017D01E1E0CE1AD108E108F1080A
:101FC000112309F472CC87E0A5CC86E05BCCEFEF5F
:101FD000CE16D104E104F10409F060F684E052CC9D
:101FE0003FEFC316D104E104F104D1F0C8F062E17F
:101FF0007AE780E090E0A50194010E944F11690109
:102000007A01F1E0CF1AD108E108F1082FEFC216EA
:10201000D104E104F10411F008F037CC84E046CC9F
:1020200083E044CC82E076CC8091FA039091FB036C
:10203000009711F00E9426148091F80387FD03C0D9
:1020400060E00C944E030895109284021092830273
:1020500088EE93E0A0E0B0E0809385029093860242
:10206000A0938702B09388028FE091E09093820260
:102070008093810285EC90E090938E0280938D0294
:1020800084EC90E09093900280938F0280EC90E03B
:10209000909392028093910281EC90E0909394024D
:1020A0008093930282EC90E0909396028093950245
:1020B00086EC90E0909398028093970210929A0297
:1020C00010929B0210929C0210929D021092F303B8
:1020D0001092F9031092000410920104109202046D
:1020E0001092030481E08093FF038093FC0310921D
:1020F000FD0392E09093FE038093F2038DE290E063
:102100009093F7038093F6030E9491139093FB033F
:102110008093FA03009761F02DE2FC0111922A9559
:10212000E9F78FE090E09093F5038093F40308C003
:102130001092F7031092F6031092F5031092F40335
:102140008AE08093F8038091F303882341F061E0F3
:102150008AE00E944E0360E08AE00E949C02E5EC67
:10216000F0E0E491F0E0EE0FFF1FEF54FF4F859198
:1021700094919093050480930404E7EAF0E0E491DD
:10218000E0930604809108048B3030F48F5F8093D5
:1021900008048093F10302C01092F1038FEF809343
:1021A0001F031092210310920C0410920B0488EE6E
:1021B00093E0A0E0B0E080930D0490930E04A09310
:1021C0000F04B09310048FE191E090930A04809380
:1021D0000904109207048091F80387FD08C061E0AC
:1021E0000E944E0360E08091F8030E949C0281E00F
:1021F0008093F30361E087E00E944E0361E084E096
:102200000C944E03FC0188279927E89421912032F1
:10221000E9F3293010F02E30C8F32B3241F02D3283
:1022200039F4689404C00E944711820F911D2191D6
:1022300020532A30C0F31EF4909581959F4F089546
:10224000FA01A191B081009719F41097E1F0CD0146
:10225000DC01CD010D90002011F4C00113C0FB0181
:102260002191222319F02015D9F7F3CFFB012191F9
:10227000201519F41E92119606C02223C1F70D9065
:102280000020A1F7D001FA01A193B08308957AE06C
:10229000979F902D879F802D910D11240895052ED5
:1022A00097FB1EF400940E94661157FD07D00E9410
:1022B000791107FC03D04EF40C94661150954095AB
:1022C000309521953F4F4F4F5F4F089590958095E2
:1022D000709561957F4F8F4F9F4F08950E949B117E
:1022E000A59F900DB49F900DA49F800D911D11246A
:1022F0000895A1E21A2EAA1BBB1BFD010DC0AA1F47
:10230000BB1FEE1FFF1FA217B307E407F50720F05E
:10231000A21BB30BE40BF50B661F771F881F991FD9
:102320001A9469F760957095809590959B01AC0122
:10233000BD01CF010895A29FB001B39FC001A39F2B
:10234000700D811D1124911DB29F700D811D1124EE
:10235000911D08955058BB27AA270E94C2110C94C2
:10236000C3120E94B51238F00E94BC1220F039F45A
:102370009F3F19F426F40C94B2120EF4E095E7FB9B
:102380000C94AC12E92F0E94D41258F3BA176207CA
:1023900073078407950720F079F4A6F50C94F612DC
:1023A0000EF4E0950B2EBA2FA02D0B01B901900170
:1023B0000C01CA01A0011124FF27591B99F0593FB4
:1023C00050F4503E68F11A16F040A22F232F342FFC
:1023D0004427585FF3CF469537952795A795F0404A
:1023E0005395C9F77EF41F16BA0B620B730B840B5F
:1023F000BAF09150A1F0FF0FBB1F661F771F881F17
:10240000C2F70EC0BA0F621F731F841F48F487956E
:1024100077956795B795F7959E3F08F0B0CF939560
:10242000880F08F09927EE0F9795879508950E94D9
:10243000881208F481E008950E94DC1288F09F570A
:1024400098F0B92F9927B751B0F0E1F0660F771FD8
:10245000881F991F1AF0BA95C9F714C0B13091F0CE
:102460000E94F612B1E008950C94F612672F782FAF
:102470008827B85F39F0B93FCCF386957795679593
:10248000B395D9F73EF490958095709561957F4FFF
:102490008F4F9F4F0895E89409C097FB3EF49095A5
:1024A0008095709561957F4F8F4F9F4F9923A9F02D
:1024B000F92F96E9BB279395F695879577956795BC
:1024C000B795F111F8CFFAF4BB0F11F460FF1BC000
:1024D0006F5F7F4F8F4F9F4F16C0882311F096E993
:1024E00011C0772321F09EE8872F762F05C0662341
:1024F00071F096E8862F70E060E02AF09A95660FFA
:10250000771F881FDAF7880F9695879597F90895B2
:10251000990F0008550FAA0BE0E8FEEF16161706F4
:10252000E807F907C0F012161306E407F50798F05C
:10253000621B730B840B950B39F40A2661F0232B75
:10254000242B252B21F408950A2609F4A140A695F1
:102550008FEF811D811D089597F99F6780E870E0D6
:1025600060E008959FEF80EC089500240A94161609
:10257000170618060906089500240A941216130671
:10258000140605060895092E0394000C11F48823FF
:1025900052F0BB0F40F4BF2B11F460FF04C06F5F1B
:1025A0007F4F8F4F9F4F089557FD9058440F551FF1
:1025B00059F05F3F71F04795880F97FB991F61F0C5
:1025C0009F3F79F087950895121613061406551F3C
:1025D000F2CF4695F1DF08C0161617061806991FA8
:1025E000F1CF86957105610508940895E894BB279D
:1025F00066277727CB0197F908950E94881208F47F
:102600008FEF08950E9415130C94C3120E94B51207
:1026100038F00E94BC1220F0952311F00C94AC12FB
:102620000C94B21211240C94F7120E94D41270F37D
:10263000959FC1F3950F50E0551F629FF001729F67
:10264000BB27F00DB11D639FAA27F00DB11DAA1F76
:10265000649F6627B00DA11D661F829F2227B00DC3
:10266000A11D621F739FB00DA11D621F839FA00D4E
:10267000611D221F749F3327A00D611D231F849F9E
:10268000600D211D822F762F6A2F11249F575040F5
:102690009AF0F1F088234AF0EE0FFF1FBB1F661F70
:1026A000771F881F91505040A9F79E3F510580F039
:1026B0000C94AC120C94F7125F3FE4F3983ED4F301
:1026C000869577956795B795F795E7959F5FC1F7DD
:1026D000FE2B880F911D9695879597F908950E9476
:1026E0008812880B990B0895DB018F939F930E94AA
:1026F0006E11BF91AF91A29F800D911DA39F900D70
:10270000B29F900D112408950E949B11B7FF089568
:10271000821B930B0895EE0FFF1F0590F491E02D9F
:102720000994CF93DF938230910510F482E090E01A
:10273000E0911704F091180420E030E0C0E0D0E010
:10274000309711F14081518148175907C0F048175F
:10275000590761F482819381209719F09B838A83C2
:102760002BC0909318048093170426C021153105BF
:1027700019F04217530718F49A01BE01DF01EF0167
:102780000280F381E02DDCCF2115310509F1281BF2
:10279000390B2430310590F412968D919C9113974A
:1027A0006115710521F0FB019383828304C090932E
:1027B000180480931704FD01329644C0FD01E20F16
:1027C000F31F81939193225031092D933C933AC08A
:1027D0002091150430911604232B41F42091070118
:1027E00030910801309316042093150420910501BF
:1027F000309106012115310541F42DB73EB74091C6
:10280000090150910A01241B350BE0911504F09148
:102810001604E217F307A0F42E1B3F0B2817390705
:1028200078F0AC014E5F5F4F2417350748F04E0F2C
:102830005F1F50931604409315048193919302C037
:10284000E0E0F0E0CF01DF91CF9108950F931F9367
:10285000CF93DF93009709F48CC0FC013297138269
:10286000128200911704109118040115110581F4CA
:1028700020813181820F931F20911504309116041D
:102880002817390779F5F0931604E093150471C001
:10289000D80140E050E0AE17BF0750F412962D91DA
:1028A0003C911397AD012115310509F1D901F3CF01
:1028B0009D01DA013383228360817181860F971F26
:1028C0008217930769F4EC0128813981260F371F9D
:1028D0002E5F3F4F318320838A819B819383828344
:1028E000452B29F4F0931804E093170442C0139683
:1028F000FC93EE931297ED01499159919E01240F9B
:10290000351FE217F30771F480819181840F951FC1
:10291000029611969C938E938281938113969C9339
:102920008E931297E0E0F0E0D80112968D919C9181
:102930001397009719F0F8018C01F6CF8D919C91B7
:1029400098012E5F3F4F820F931F20911504309105
:1029500016042817390769F4309729F410921804DF
:102960001092170402C0138212821093160400936F
:102970001504DF91CF911F910F91089581E090E0B0
:10298000F8940C942F18AEE0B0E0E9ECF4E10C946C
:10299000081885E08C838B899C899A838983AE0192
:1029A000495E5F4F6D897E89CE0101960E945C165B
:1029B0002E96E2E00C94241820FD09C0FC0123FDB2
:1029C00005C022FF02C07383628351834083089550
:1029D00044FD10C046FD10C0DB01FC01AA0FBB1F67
:1029E000EE1FFF1F1094D1F76A0F7B1F8E1F9F1FD2
:1029F00031E003C033E001C034E0660F771F881F69
:102A0000991F3150D1F7620F711D811D911D0895DD
:102A10000F931F93CF93DF938C01C8010E949E17E1
:102A2000EC0197FD08C00E948A17892BB1F7B80105
:102A3000CE010E94DC17CE01DF91CF911F910F9143
:102A40000895A1E0B0E0E7E2F5E10C94FE178C01F7
:102A5000C62E7A0129830E949E17AC015527298131
:102A60004B32510521F04D32510569F42068CA946A
:102A7000C11002C080E076C0C80129830E949E1761
:102A8000298197FDF7CF322F3D7FD32E322F307320
:102A900049F5803339F5BB24BA94BC0C09F44EC017
:102AA000C80129830E949E17298197FD47C0382FAE
:102AB0003F7D383569F48D2D8264D82ECA94CA942E
:102AC000CC20E1F1C8010E949E1797FF0BC036C0D1
:102AD00026FF04C02D2D2260D22E03C03D2D326171
:102AE000D32ECB2C812C912C540120ED280F283093
:102AF00080F0D4FE04C0B8010E94DC171CC02A304C
:102B000040F0D6FEF8CF2F7D3FEE320F363098F7EB
:102B100027504D2DC501B4010E94E8144B015C0102
:102B20008D2D8260D82ECA94CC2059F0C8010E9405
:102B30009E1797FFDACFD1FC04C09CCF812C912C3B
:102B40005401D7FE08C0B094A09490948094811C46
:102B5000911CA11CB11C2D2DB501A401C7010E941F
:102B6000DC1481E02196ECE00C941A18A1E2B0E0AC
:102B7000ECEBF5E10C94FC175C017A01CE010196B7
:102B80006C0180E2F60111928A95E9F7F5018380E4
:102B900040E050E0912C712C70E0A1E0B0E0F90130
:102BA00083FC859183FE81918F01982F9F01811174
:102BB00003C080E090E07CC08E3519F441155105CA
:102BC00049F1E72FF0E0E417F5073CF48D3559F1B2
:102BD0008D3219F4772001F103C0711001C0982ED5
:102BE000892F8695869586958601080F111D892F58
:102BF00087703D0101C0660C8A95EAF7F801808173
:102C000086298083991559F0991510F49F5FE8CFB4
:102C10009150E6CF71E004C07724739401C0712C09
:102C20004F5F5F4FBCCF772019F08E8180628E831B
:102C3000711103C09924939416C0F6019E012F5D73
:102C40003F4F808180958193E217F307D1F7F2CF50
:102C5000E114F10429F0F7018083C70101967C019A
:102C60006150912CF9F0C50169A30E949E1769A1DA
:102C700097FD16C0282F269526952695F601E20F7A
:102C8000F11D208130E0AC014770552702C0359519
:102C900027954A95E2F720FDDBCFB5010E94DC17AE
:102CA000911087CFE114F10411F0F7011082C801EF
:102CB000A196EEE00C9418184F925F927F928F923B
:102CC0009F92AF92BF92CF92DF92EF92FF920F93BB
:102CD0001F93CF93DF931F92CDB7DEB76C012B010B
:102CE0005A01FC0117821682712CF601F380F20161
:102CF000F3FC8591F3FE8191382F2F01882309F48D
:102D0000F3C090E039830E948A173981892B21F022
:102D1000C6010E940815E9CF353241F4F201F3FCF7
:102D20003591F3FE31912F01353269F4C6013983B3
:102D30000E949E17398197FDD5C03817B1F2B601B0
:102D40000E94DC17D1C03A3239F4F3FC3591F3FE1E
:102D500031912F0151E001C050E0420110E020ED1F
:102D6000230F2A3090F45260612F70E080E090E0F1
:102D700040E259830E94E814162FF401F3FC3591C8
:102D8000F3FE31914F015981EACF052F232F240102
:102D900051FF03C0111102C0A7C01FEF383619F050
:102DA0003C3659F011C0F401F3FC2591F3FE21915A
:102DB0002F01283649F4052F08600460F201F3FC66
:102DC0002591F3FE21912F01222309F48DC0622F5A
:102DD00070E088E690E029830E9493172981892B6F
:102DE00009F482C000FD07C0F501E080F180C50153
:102DF00002965C0102C0E12CF12C2E3651F4F60152
:102E00004681578160E070E0202FC7010E94DC14EA
:102E10006CCF233691F401FF11E0C6010E949E178A
:102E200097FD60C0E114F10429F0F7018083C70128
:102E300001967C01115089F751C02B3559F492014C
:102E4000A701612FC6010E94B6152C01892B09F03C
:102E500045C03FC0C60129830E940815298197FDFE
:102E600041C02F3659F128F4243631F1293649F181
:102E700027C0233769F02537F9F022C0E114F104A7
:102E800029F0F7018082C70101967C01115071F091
:102E9000C6010E949E174C0197FD08C00E948A1728
:102EA000892B61F3B601C4010E94DC17E114F1041F
:102EB000A9F0F701108212C0006203C0006101C0D6
:102EC0000064202FA701612FC6010E9421158111E6
:102ED00005C0F6018381807329F406C000FD05CF8B
:102EE000739403CF772019F0872D90E002C08FEF05
:102EF0009FEF0F90DF91CF911F910F91FF90EF9077
:102F0000DF90CF90BF90AF909F908F907F905F9019
:102F10004F90089591110C94F517803219F0895053
:102F20008550C8F70895FC010590061621F0002091
:102F3000D9F7C00108953197CF010895CF93DF935A
:102F4000EC012B8120FF33C026FF0AC02F7B2B838F
:102F50008E819F8101969F838E838A8190E029C014
:102F600022FF0FC0E881F9818081082E000C990BA7
:102F7000009719F420622B831AC03196F983E883F5
:102F80000EC0EA85FB85099597FF09C02B81019644
:102F900011F080E201C080E1822B8B8308C02E817A
:102FA0003F812F5F3F4F3F832E83992702C08FEFD2
:102FB0009FEFDF91CF910895FB01238120FF12C085
:102FC00026FD10C08F3F3FEF930761F082832F7D76
:102FD000206423832681378121503109378326835A
:102FE000992708958FEF9FEF0895992788270895CF
:102FF0002F923F924F925F926F927F928F929F9209
:10300000AF92BF92CF92DF92EF92FF920F931F93F6
:10301000CF93DF93CDB7DEB7CA1BDB0B0FB6F894A7
:10302000DEBF0FBECDBF09942A88398848885F84E7
:103030006E847D848C849B84AA84B984C884DF8058
:10304000EE80FD800C811B81AA81B981CE0FD11D3C
:103050000FB6F894DEBF0FBECDBFED01089510E0AE
:10306000C9E6D0E004C0FE010E948B132196CA3647
:08307000D107C9F7F894FFCF66
:10307800FFFFFFFFFF000019048000000000001898
:10308800019400E100BF00D3005F010000000008C8
:1030980002F401ED01EA01E701E6014D3330312088
:1030A800004D33303220004D33303320002564206A
:1030B80025642025642025640A004D33303520001E
:1030C8004D33303620004D33303820006E616E00AD
:1030D800696E66006F7666004F4B004D30200042E7
:0C30E8004D426F742056312E300D0A004E
:00000001FF
